{
  "_format": "hh-sol-artifact-1",
  "contractName": "SocialAwardVaultFactory",
  "sourceName": "contracts/SocialAwardVaultFactory.sol",
  "abi": [
    {
      "inputs": [
        {
          "internalType": "address",
          "name": "_linkTokenAddress",
          "type": "address"
        },
        {
          "internalType": "address",
          "name": "_VRFCoordinator",
          "type": "address"
        },
        {
          "internalType": "bytes32",
          "name": "_keyHash",
          "type": "bytes32"
        }
      ],
      "stateMutability": "nonpayable",
      "type": "constructor"
    },
    {
      "anonymous": false,
      "inputs": [
        {
          "indexed": true,
          "internalType": "address",
          "name": "oldOwner",
          "type": "address"
        },
        {
          "indexed": true,
          "internalType": "address",
          "name": "newOwner",
          "type": "address"
        }
      ],
      "name": "OwnerSet",
      "type": "event"
    },
    {
      "anonymous": false,
      "inputs": [
        {
          "indexed": false,
          "internalType": "uint256",
          "name": "vaultId",
          "type": "uint256"
        },
        {
          "indexed": false,
          "internalType": "uint256",
          "name": "targetAmount",
          "type": "uint256"
        }
      ],
      "name": "SocialAwardVaultCreation",
      "type": "event"
    },
    {
      "anonymous": false,
      "inputs": [
        {
          "indexed": false,
          "internalType": "uint8",
          "name": "fee",
          "type": "uint8"
        }
      ],
      "name": "SocialAwardVaultProtoclStakingFeeUpdated",
      "type": "event"
    },
    {
      "anonymous": false,
      "inputs": [
        {
          "indexed": false,
          "internalType": "address",
          "name": "_from",
          "type": "address"
        },
        {
          "indexed": false,
          "internalType": "address",
          "name": "_destAddr",
          "type": "address"
        },
        {
          "indexed": false,
          "internalType": "uint256",
          "name": "_amount",
          "type": "uint256"
        }
      ],
      "name": "TransferSent",
      "type": "event"
    },
    {
      "inputs": [
        {
          "internalType": "uint256",
          "name": "_targetAmount",
          "type": "uint256"
        },
        {
          "internalType": "string",
          "name": "_vaultName",
          "type": "string"
        },
        {
          "internalType": "uint256",
          "name": "_maxStakingAmount",
          "type": "uint256"
        },
        {
          "internalType": "uint256",
          "name": "_minStakingAmount",
          "type": "uint256"
        }
      ],
      "name": "createSocialAwardVault",
      "outputs": [
        {
          "internalType": "uint256",
          "name": "",
          "type": "uint256"
        }
      ],
      "stateMutability": "nonpayable",
      "type": "function"
    },
    {
      "inputs": [],
      "name": "getNumberOfAwardVaultsOfUser",
      "outputs": [
        {
          "internalType": "uint256",
          "name": "",
          "type": "uint256"
        }
      ],
      "stateMutability": "view",
      "type": "function"
    },
    {
      "inputs": [],
      "name": "getNumberOfSocialAwardVaults",
      "outputs": [
        {
          "internalType": "uint256",
          "name": "",
          "type": "uint256"
        }
      ],
      "stateMutability": "view",
      "type": "function"
    },
    {
      "inputs": [],
      "name": "getSmartContractBalance",
      "outputs": [
        {
          "internalType": "uint256",
          "name": "",
          "type": "uint256"
        }
      ],
      "stateMutability": "view",
      "type": "function"
    },
    {
      "inputs": [
        {
          "internalType": "uint256",
          "name": "_socialAwardVaultId",
          "type": "uint256"
        }
      ],
      "name": "getSocialAwardVaultDetailsById",
      "outputs": [
        {
          "internalType": "address",
          "name": "",
          "type": "address"
        },
        {
          "internalType": "string",
          "name": "",
          "type": "string"
        },
        {
          "internalType": "uint256",
          "name": "",
          "type": "uint256"
        },
        {
          "internalType": "uint256",
          "name": "",
          "type": "uint256"
        },
        {
          "internalType": "uint256",
          "name": "",
          "type": "uint256"
        },
        {
          "internalType": "uint256",
          "name": "",
          "type": "uint256"
        },
        {
          "internalType": "uint8",
          "name": "",
          "type": "uint8"
        },
        {
          "internalType": "address",
          "name": "",
          "type": "address"
        },
        {
          "internalType": "address",
          "name": "",
          "type": "address"
        }
      ],
      "stateMutability": "view",
      "type": "function"
    },
    {
      "inputs": [],
      "name": "getSocialAwardVaultsStakedByUser",
      "outputs": [
        {
          "internalType": "uint256[]",
          "name": "",
          "type": "uint256[]"
        }
      ],
      "stateMutability": "view",
      "type": "function"
    },
    {
      "inputs": [],
      "name": "numSocialAwardVaults",
      "outputs": [
        {
          "internalType": "uint256",
          "name": "",
          "type": "uint256"
        }
      ],
      "stateMutability": "view",
      "type": "function"
    },
    {
      "inputs": [],
      "name": "owner",
      "outputs": [
        {
          "internalType": "address",
          "name": "",
          "type": "address"
        }
      ],
      "stateMutability": "view",
      "type": "function"
    },
    {
      "inputs": [
        {
          "internalType": "uint8",
          "name": "_newSocialAwardVaultProtolStakingFee",
          "type": "uint8"
        }
      ],
      "name": "setAwardVaultProtolStakingFee",
      "outputs": [],
      "stateMutability": "nonpayable",
      "type": "function"
    },
    {
      "inputs": [],
      "name": "socialAwardVaultProtolStakingFee",
      "outputs": [
        {
          "internalType": "uint8",
          "name": "",
          "type": "uint8"
        }
      ],
      "stateMutability": "view",
      "type": "function"
    },
    {
      "inputs": [
        {
          "internalType": "uint256",
          "name": "",
          "type": "uint256"
        }
      ],
      "name": "socialAwardVaults",
      "outputs": [
        {
          "internalType": "contract SocialAwardVault",
          "name": "",
          "type": "address"
        }
      ],
      "stateMutability": "view",
      "type": "function"
    },
    {
      "stateMutability": "payable",
      "type": "receive"
    }
  ],
  "bytecode": "0x608060405260006001556702c68af0bb1400006003553480156200002257600080fd5b5060405162003b4c38038062003b4c8339818101604052810190620000489190620001c3565b336000806101000a81548173ffffffffffffffffffffffffffffffffffffffff021916908373ffffffffffffffffffffffffffffffffffffffff16021790555060008054906101000a900473ffffffffffffffffffffffffffffffffffffffff1673ffffffffffffffffffffffffffffffffffffffff16600073ffffffffffffffffffffffffffffffffffffffff167f342827c97908e5e2f71151c08502a66d44b6f758e3ac2f1de95f02eb95f0a73560405160405180910390a381600460006101000a81548173ffffffffffffffffffffffffffffffffffffffff021916908373ffffffffffffffffffffffffffffffffffffffff16021790555082600560006101000a81548173ffffffffffffffffffffffffffffffffffffffff021916908373ffffffffffffffffffffffffffffffffffffffff160217905550806006819055505050506200028b565b600081519050620001a68162000257565b92915050565b600081519050620001bd8162000271565b92915050565b600080600060608486031215620001d957600080fd5b6000620001e98682870162000195565b9350506020620001fc8682870162000195565b92505060406200020f86828701620001ac565b9150509250925092565b6000620002268262000237565b9050919050565b6000819050919050565b600073ffffffffffffffffffffffffffffffffffffffff82169050919050565b620002628162000219565b81146200026e57600080fd5b50565b6200027c816200022d565b81146200028857600080fd5b50565b6138b1806200029b6000396000f3fe608060405260043610620000af5760003560e01c80638da5cb5b116200006d5780638da5cb5b14620001dc57806391ba7507146200020c578063a4855e99146200023c578063c92e0fc81462000280578063eb4d9e2b14620002b0578063eccdd59f14620002de57620000b7565b806303b5dbb914620000bc578063440d9ad914620000ec5780635145cbc0146200013057806360bac55d14620001605780638d4d0cd814620001ac57620000b7565b36620000b757005b600080fd5b348015620000c957600080fd5b50620000d46200030e565b604051620000e391906200112e565b60405180910390f35b348015620000f957600080fd5b5062000118600480360381019062000112919062000d86565b62000318565b6040516200012791906200112e565b60405180910390f35b3480156200013d57600080fd5b506200014862000491565b6040516200015791906200112e565b60405180910390f35b3480156200016d57600080fd5b506200018c600480360381019062000186919062000d5a565b62000499565b604051620001a39998979695949392919062001003565b60405180910390f35b348015620001b957600080fd5b50620001c4620005b8565b604051620001d391906200112e565b60405180910390f35b348015620001e957600080fd5b50620001f4620006f8565b60405162000203919062000fe6565b60405180910390f35b3480156200021957600080fd5b50620002246200071c565b6040516200023391906200121e565b60405180910390f35b3480156200024957600080fd5b5062000268600480360381019062000262919062000d5a565b6200072f565b604051620002779190620010cd565b60405180910390f35b3480156200028d57600080fd5b50620002986200076f565b604051620002a79190620010a9565b60405180910390f35b348015620002bd57600080fd5b50620002dc6004803603810190620002d6919062000e0b565b62000989565b005b348015620002eb57600080fd5b50620002f662000aba565b6040516200030591906200112e565b60405180910390f35b6000600154905090565b6000808585338686600260009054906101000a900460ff16600460009054906101000a900473ffffffffffffffffffffffffffffffffffffffff16600560009054906101000a900473ffffffffffffffffffffffffffffffffffffffff16600654604051620003879062000ac0565b6200039b999897969594939291906200114b565b604051809103906000f080158015620003b8573d6000803e3d6000fd5b5090506007819080600181540180825580915050600190039060005260206000200160009091909190916101000a81548173ffffffffffffffffffffffffffffffffffffffff021916908373ffffffffffffffffffffffffffffffffffffffff1602179055507fe3a3e0ad765186298b13f3a958646b34cc56b6974ca20ab20455954b41624c8c6001548760405162000453929190620011f1565b60405180910390a160018060008282546200046f9190620012f7565b925050819055506001805462000486919062001354565b915050949350505050565b600047905090565b6000606060008060008060008060008060078b81548110620004e4577f4e487b7100000000000000000000000000000000000000000000000000000000600052603260045260246000fd5b9060005260206000200160009054906101000a900473ffffffffffffffffffffffffffffffffffffffff1690508073ffffffffffffffffffffffffffffffffffffffff1663326d21a06040518163ffffffff1660e01b815260040160006040518083038186803b1580156200055857600080fd5b505afa1580156200056d573d6000803e3d6000fd5b505050506040513d6000823e3d601f19601f8201168201806040525081019062000598919062000c3c565b995099509950995099509950995099509950509193959799909294969850565b60008060005b600154811015620006f05760006007828154811062000606577f4e487b7100000000000000000000000000000000000000000000000000000000600052603260045260246000fd5b9060005260206000200160009054906101000a900473ffffffffffffffffffffffffffffffffffffffff1690508073ffffffffffffffffffffffffffffffffffffffff16638f891416336040518263ffffffff1660e01b81526004016200066e919062000fe6565b60206040518083038186803b1580156200068757600080fd5b505afa1580156200069c573d6000803e3d6000fd5b505050506040513d601f19601f82011682018060405250810190620006c2919062000d2e565b15620006d9578280620006d5906200145d565b9350505b508080620006e7906200145d565b915050620005be565b508091505090565b60008054906101000a900473ffffffffffffffffffffffffffffffffffffffff1681565b600260009054906101000a900460ff1681565b600781815481106200074057600080fd5b906000526020600020016000915054906101000a900473ffffffffffffffffffffffffffffffffffffffff1681565b606060006200077d620005b8565b90506000808267ffffffffffffffff811115620007c3577f4e487b7100000000000000000000000000000000000000000000000000000000600052604160045260246000fd5b604051908082528060200260200182016040528015620007f25781602001602082028036833780820191505090505b50905060005b600154811080156200080957508383105b156200097f576000600782815481106200084c577f4e487b7100000000000000000000000000000000000000000000000000000000600052603260045260246000fd5b9060005260206000200160009054906101000a900473ffffffffffffffffffffffffffffffffffffffff1690508073ffffffffffffffffffffffffffffffffffffffff16638f891416336040518263ffffffff1660e01b8152600401620008b4919062000fe6565b60206040518083038186803b158015620008cd57600080fd5b505afa158015620008e2573d6000803e3d6000fd5b505050506040513d601f19601f8201168201806040525081019062000908919062000d2e565b1562000968576001846200091d9190620012f7565b935081836000815181106200095b577f4e487b7100000000000000000000000000000000000000000000000000000000600052603260045260246000fd5b6020026020010181815250505b50808062000976906200145d565b915050620007f8565b5080935050505090565b60008054906101000a900473ffffffffffffffffffffffffffffffffffffffff1673ffffffffffffffffffffffffffffffffffffffff163373ffffffffffffffffffffffffffffffffffffffff161462000a1a576040517f08c379a000000000000000000000000000000000000000000000000000000000815260040162000a1190620010ea565b60405180910390fd5b60648160ff161062000a63576040517f08c379a000000000000000000000000000000000000000000000000000000000815260040162000a5a906200110c565b60405180910390fd5b80600260006101000a81548160ff021916908360ff1602179055507f368e79fa946a6487c7e05fb049ef76a215a26d300089e4a12e1cf4cfeff28eaf8160405162000aaf91906200121e565b60405180910390a150565b60015481565b6122f9806200158383390190565b600062000ae562000adf846200126f565b6200123b565b90508281526020810184848401111562000afe57600080fd5b62000b0b84828562001418565b509392505050565b600062000b2a62000b24846200126f565b6200123b565b90508281526020810184848401111562000b4357600080fd5b62000b5084828562001427565b509392505050565b60008151905062000b69816200151a565b92915050565b60008151905062000b808162001534565b92915050565b600082601f83011262000b9857600080fd5b813562000baa84826020860162000ace565b91505092915050565b600082601f83011262000bc557600080fd5b815162000bd784826020860162000b13565b91505092915050565b60008135905062000bf1816200154e565b92915050565b60008151905062000c08816200154e565b92915050565b60008135905062000c1f8162001568565b92915050565b60008151905062000c368162001568565b92915050565b60008060008060008060008060006101208a8c03121562000c5c57600080fd5b600062000c6c8c828d0162000b58565b99505060208a015167ffffffffffffffff81111562000c8a57600080fd5b62000c988c828d0162000bb3565b985050604062000cab8c828d0162000bf7565b975050606062000cbe8c828d0162000bf7565b965050608062000cd18c828d0162000bf7565b95505060a062000ce48c828d0162000bf7565b94505060c062000cf78c828d0162000c25565b93505060e062000d0a8c828d0162000b58565b92505061010062000d1e8c828d0162000b58565b9150509295985092959850929598565b60006020828403121562000d4157600080fd5b600062000d518482850162000b6f565b91505092915050565b60006020828403121562000d6d57600080fd5b600062000d7d8482850162000be0565b91505092915050565b6000806000806080858703121562000d9d57600080fd5b600062000dad8782880162000be0565b945050602085013567ffffffffffffffff81111562000dcb57600080fd5b62000dd98782880162000b86565b935050604062000dec8782880162000be0565b925050606062000dff8782880162000be0565b91505092959194509250565b60006020828403121562000e1e57600080fd5b600062000e2e8482850162000c0e565b91505092915050565b600062000e45838362000fb3565b60208301905092915050565b62000e5c816200138f565b82525050565b600062000e6f82620012b2565b62000e7b8185620012d5565b935062000e8883620012a2565b8060005b8381101562000ebf57815162000ea3888262000e37565b975062000eb083620012c8565b92505060018101905062000e8c565b5085935050505092915050565b62000ed781620013af565b82525050565b62000ee881620013f0565b82525050565b600062000efb82620012bd565b62000f078185620012e6565b935062000f1981856020860162001427565b62000f248162001509565b840191505092915050565b600062000f3e602083620012e6565b91507f466565206f6e6c792075706461746561626c6520627920535646206f776e65726000830152602082019050919050565b600062000f80601183620012e6565b91507f4665652043616e2774206265203e2039390000000000000000000000000000006000830152602082019050919050565b62000fbe81620013d9565b82525050565b62000fcf81620013d9565b82525050565b62000fe081620013e3565b82525050565b600060208201905062000ffd600083018462000e51565b92915050565b6000610120820190506200101b600083018c62000e51565b81810360208301526200102f818b62000eee565b905062001040604083018a62000fc4565b6200104f606083018962000fc4565b6200105e608083018862000fc4565b6200106d60a083018762000fc4565b6200107c60c083018662000fd5565b6200108b60e083018562000e51565b6200109b61010083018462000e51565b9a9950505050505050505050565b60006020820190508181036000830152620010c5818462000e62565b905092915050565b6000602082019050620010e4600083018462000edd565b92915050565b60006020820190508181036000830152620011058162000f2f565b9050919050565b60006020820190508181036000830152620011278162000f71565b9050919050565b600060208201905062001145600083018462000fc4565b92915050565b60006101208201905062001163600083018c62000fc4565b818103602083015262001177818b62000eee565b905062001188604083018a62000e51565b62001197606083018962000fc4565b620011a6608083018862000fc4565b620011b560a083018762000fd5565b620011c460c083018662000e51565b620011d360e083018562000e51565b620011e361010083018462000ecc565b9a9950505050505050505050565b600060408201905062001208600083018562000fc4565b62001217602083018462000fc4565b9392505050565b600060208201905062001235600083018462000fd5565b92915050565b6000604051905081810181811067ffffffffffffffff82111715620012655762001264620014da565b5b8060405250919050565b600067ffffffffffffffff8211156200128d576200128c620014da565b5b601f19601f8301169050602081019050919050565b6000819050602082019050919050565b600081519050919050565b600081519050919050565b6000602082019050919050565b600082825260208201905092915050565b600082825260208201905092915050565b60006200130482620013d9565b91506200131183620013d9565b9250827fffffffffffffffffffffffffffffffffffffffffffffffffffffffffffffffff03821115620013495762001348620014ab565b5b828201905092915050565b60006200136182620013d9565b91506200136e83620013d9565b925082821015620013845762001383620014ab565b5b828203905092915050565b60006200139c82620013b9565b9050919050565b60008115159050919050565b6000819050919050565b600073ffffffffffffffffffffffffffffffffffffffff82169050919050565b6000819050919050565b600060ff82169050919050565b6000620013fd8262001404565b9050919050565b60006200141182620013b9565b9050919050565b82818337600083830152505050565b60005b83811015620014475780820151818401526020810190506200142a565b8381111562001457576000848401525b50505050565b60006200146a82620013d9565b91507fffffffffffffffffffffffffffffffffffffffffffffffffffffffffffffffff821415620014a0576200149f620014ab565b5b600182019050919050565b7f4e487b7100000000000000000000000000000000000000000000000000000000600052601160045260246000fd5b7f4e487b7100000000000000000000000000000000000000000000000000000000600052604160045260246000fd5b6000601f19601f8301169050919050565b62001525816200138f565b81146200153157600080fd5b50565b6200153f81620013a3565b81146200154b57600080fd5b50565b6200155981620013d9565b81146200156557600080fd5b50565b6200157381620013e3565b81146200157f57600080fd5b5056fe60c06040526000600d553480156200001657600080fd5b50604051620022f9380380620022f983398181016040528101906200003c91906200031c565b81838173ffffffffffffffffffffffffffffffffffffffff1660a08173ffffffffffffffffffffffffffffffffffffffff1660601b815250508073ffffffffffffffffffffffffffffffffffffffff1660808173ffffffffffffffffffffffffffffffffffffffff1660601b81525050505086600260006101000a81548173ffffffffffffffffffffffffffffffffffffffff021916908373ffffffffffffffffffffffffffffffffffffffff1602179055508760039080519060200190620001079291906200019e565b5088600481905550856006819055508460078190555083600860006101000a81548160ff021916908360ff16021790555033600160006101000a81548173ffffffffffffffffffffffffffffffffffffffff021916908373ffffffffffffffffffffffffffffffffffffffff16021790555080600b8190555067016345785d8a0000600c81905550505050505050505050620005fc565b828054620001ac9062000500565b90600052602060002090601f016020900481019282620001d057600085556200021c565b82601f10620001eb57805160ff19168380011785556200021c565b828001600101855582156200021c579182015b828111156200021b578251825591602001919060010190620001fe565b5b5090506200022b91906200022f565b5090565b5b808211156200024a57600081600090555060010162000230565b5090565b6000620002656200025f8462000442565b6200040e565b9050828152602081018484840111156200027e57600080fd5b6200028b848285620004ca565b509392505050565b600081519050620002a48162000594565b92915050565b600081519050620002bb81620005ae565b92915050565b600082601f830112620002d357600080fd5b8151620002e58482602086016200024e565b91505092915050565b600081519050620002ff81620005c8565b92915050565b6000815190506200031681620005e2565b92915050565b60008060008060008060008060006101208a8c0312156200033c57600080fd5b60006200034c8c828d01620002ee565b99505060208a015167ffffffffffffffff8111156200036a57600080fd5b620003788c828d01620002c1565b98505060406200038b8c828d0162000293565b97505060606200039e8c828d01620002ee565b9650506080620003b18c828d01620002ee565b95505060a0620003c48c828d0162000305565b94505060c0620003d78c828d0162000293565b93505060e0620003ea8c828d0162000293565b925050610100620003fe8c828d01620002aa565b9150509295985092959850929598565b6000604051905081810181811067ffffffffffffffff8211171562000438576200043762000565565b5b8060405250919050565b600067ffffffffffffffff82111562000460576200045f62000565565b5b601f19601f8301169050602081019050919050565b6000620004828262000493565b9050919050565b6000819050919050565b600073ffffffffffffffffffffffffffffffffffffffff82169050919050565b6000819050919050565b600060ff82169050919050565b60005b83811015620004ea578082015181840152602081019050620004cd565b83811115620004fa576000848401525b50505050565b600060028204905060018216806200051957607f821691505b6020821081141562000530576200052f62000536565b5b50919050565b7f4e487b7100000000000000000000000000000000000000000000000000000000600052602260045260246000fd5b7f4e487b7100000000000000000000000000000000000000000000000000000000600052604160045260246000fd5b6200059f8162000475565b8114620005ab57600080fd5b50565b620005b98162000489565b8114620005c557600080fd5b50565b620005d381620004b3565b8114620005df57600080fd5b50565b620005ed81620004bd565b8114620005f957600080fd5b50565b60805160601c60a05160601c611cc3620006366000396000818161089b0152610f8c015260008181610e510152610f500152611cc36000f3fe6080604052600436106101095760003560e01c80634d5d0806116100955780638f891416116100645780638f8914161461034557806394985ddd14610382578063951f0a34146103ab578063ced6efce146103c9578063cf828fcf1461040657610109565b80634d5d08061461029957806351598915146102c45780635eedad4c146102ef5780636a2100a41461031a57610109565b806333100698116100dc57806333100698146101c25780633a2c1e55146101ed57806342619f661461021857806349018542146102435780634bb559bd1461026e57610109565b806315138c2b1461010e57806325c065b1146101395780632b7e3c7114610164578063326d21a01461018f575b600080fd5b34801561011a57600080fd5b50610123610443565b6040516101309190611749565b60405180910390f35b34801561014557600080fd5b5061014e6104d1565b60405161015b919061184b565b60405180910390f35b34801561017057600080fd5b506101796104d7565b604051610186919061184b565b60405180910390f35b34801561019b57600080fd5b506101a46104dd565b6040516101b9999897969594939291906115aa565b60405180910390f35b3480156101ce57600080fd5b506101d76105fa565b6040516101e49190611866565b60405180910390f35b3480156101f957600080fd5b5061020261060d565b60405161020f91906116a5565b60405180910390f35b34801561022457600080fd5b5061022d6107a3565b60405161023a919061184b565b60405180910390f35b34801561024f57600080fd5b506102586107a9565b604051610265919061184b565b60405180910390f35b34801561027a57600080fd5b506102836107af565b604051610290919061158f565b60405180910390f35b3480156102a557600080fd5b506102ae6107d5565b6040516102bb919061184b565b60405180910390f35b3480156102d057600080fd5b506102d96107db565b6040516102e6919061184b565b60405180910390f35b3480156102fb57600080fd5b50610304610822565b604051610311919061158f565b60405180910390f35b34801561032657600080fd5b5061032f610848565b60405161033c919061184b565b60405180910390f35b34801561035157600080fd5b5061036c60048036038101906103679190611183565b61084e565b60405161037991906116a5565b60405180910390f35b34801561038e57600080fd5b506103a960048036038101906103a491906111d5565b610899565b005b6103b3610935565b6040516103c091906116c0565b60405180910390f35b3480156103d557600080fd5b506103f060048036038101906103eb9190611211565b610dd2565b6040516103fd919061158f565b60405180910390f35b34801561041257600080fd5b5061042d60048036038101906104289190611183565b610e11565b60405161043a919061184b565b60405180910390f35b6003805461045090611ad3565b80601f016020809104026020016040519081016040528092919081815260200182805461047c90611ad3565b80156104c95780601f1061049e576101008083540402835291602001916104c9565b820191906000526020600020905b8154815290600101906020018083116104ac57829003601f168201915b505050505081565b60075481565b60055481565b600060606000806000806000806000600260009054906101000a900473ffffffffffffffffffffffffffffffffffffffff166003600454600554600654600754600860009054906101000a900460ff1630600160009054906101000a900473ffffffffffffffffffffffffffffffffffffffff1687805461055d90611ad3565b80601f016020809104026020016040519081016040528092919081815260200182805461058990611ad3565b80156105d65780601f106105ab576101008083540402835291602001916105d6565b820191906000526020600020905b8154815290600101906020018083116105b957829003601f168201915b50505050509750985098509850985098509850985098509850909192939495969798565b600860009054906101000a900460ff1681565b600080600d54111561079b57600080600090505b60098054905081101561079857600a60006009838154811061066c577f4e487b7100000000000000000000000000000000000000000000000000000000600052603260045260246000fd5b9060005260206000200160009054906101000a900473ffffffffffffffffffffffffffffffffffffffff1673ffffffffffffffffffffffffffffffffffffffff1673ffffffffffffffffffffffffffffffffffffffff16815260200190815260200160002054826106dd91906118c4565b9150600e548211156107855760098181548110610723577f4e487b7100000000000000000000000000000000000000000000000000000000600052603260045260246000fd5b9060005260206000200160009054906101000a900473ffffffffffffffffffffffffffffffffffffffff1673ffffffffffffffffffffffffffffffffffffffff163373ffffffffffffffffffffffffffffffffffffffff1614925050506107a0565b808061079090611b05565b915050610621565b50505b600090505b90565b600d5481565b600e5481565b600160009054906101000a900473ffffffffffffffffffffffffffffffffffffffff1681565b60065481565b6000600a60003373ffffffffffffffffffffffffffffffffffffffff1673ffffffffffffffffffffffffffffffffffffffff16815260200190815260200160002054905090565b600260009054906101000a900473ffffffffffffffffffffffffffffffffffffffff1681565b60045481565b600080600a60008473ffffffffffffffffffffffffffffffffffffffff1673ffffffffffffffffffffffffffffffffffffffff16815260200190815260200160002054119050919050565b7f000000000000000000000000000000000000000000000000000000000000000073ffffffffffffffffffffffffffffffffffffffff163373ffffffffffffffffffffffffffffffffffffffff1614610927576040517f08c379a000000000000000000000000000000000000000000000000000000000815260040161091e906117eb565b60405180910390fd5b6109318282610e29565b5050565b6000600260009054906101000a900473ffffffffffffffffffffffffffffffffffffffff1673ffffffffffffffffffffffffffffffffffffffff163373ffffffffffffffffffffffffffffffffffffffff1614156109c8576040517f08c379a00000000000000000000000000000000000000000000000000000000081526004016109bf906117cb565b60405180910390fd5b60055460045411610a0e576040517f08c379a0000000000000000000000000000000000000000000000000000000008152600401610a059061182b565b60405180910390fd5b346064600860009054906101000a900460ff16610a2b9190611982565b6001610a37919061191a565b60ff16600754610a4791906119b3565b10610a87576040517f08c379a0000000000000000000000000000000000000000000000000000000008152600401610a7e906117ab565b60405180910390fd5b6064600860009054906101000a900460ff16610aa39190611982565b6001610aaf919061191a565b60ff16600654610abf91906119b3565b341115610b01576040517f08c379a0000000000000000000000000000000000000000000000000000000008152600401610af89061180b565b60405180910390fd5b6000610b0c3361084e565b610b74576009339080600181540180825580915050600190039060005260206000200160009091909190916101000a81548173ffffffffffffffffffffffffffffffffffffffff021916908373ffffffffffffffffffffffffffffffffffffffff1602179055505b6064600860009054906101000a900460ff166064610b929190611a0d565b60ff1634610ba091906119b3565b610baa9190611951565b60056000828254610bbb91906118c4565b925050819055506064600860009054906101000a900460ff166064610be09190611a0d565b60ff1634610bee91906119b3565b610bf89190611951565b600a60003373ffffffffffffffffffffffffffffffffffffffff1673ffffffffffffffffffffffffffffffffffffffff1681526020019081526020016000206000828254610c4691906118c4565b925050819055506000600160009054906101000a900473ffffffffffffffffffffffffffffffffffffffff1673ffffffffffffffffffffffffffffffffffffffff166064600860009054906101000a900460ff1660ff1634610ca891906119b3565b610cb29190611951565b604051610cbe9061157a565b60006040518083038185875af1925050503d8060008114610cfb576040519150601f19603f3d011682016040523d82523d6000602084013e610d00565b606091505b5050905080610d44576040517f08c379a0000000000000000000000000000000000000000000000000000000008152600401610d3b9061176b565b60405180910390fd5b7f8c265adcfa641899d6632b86254dda7a76f27701f1d21a732621d51f2328c4603334604051610d7592919061163e565b60405180910390a160045460055410610dca57610d90610e4a565b91507fbf6a13344ec08d2bfaf69eb5b731afcfd0b9c50feb603663fefd3c3311a0068230604051610dc1919061158f565b60405180910390a15b819250505090565b60098181548110610de257600080fd5b906000526020600020016000915054906101000a900473ffffffffffffffffffffffffffffffffffffffff1681565b600a6020528060005260406000206000915090505481565b80600d81905550600454600d54610e409190611b62565b600e819055505050565b6000600c547f000000000000000000000000000000000000000000000000000000000000000073ffffffffffffffffffffffffffffffffffffffff166370a08231306040518263ffffffff1660e01b8152600401610ea8919061158f565b60206040518083038186803b158015610ec057600080fd5b505afa158015610ed4573d6000803e3d6000fd5b505050506040513d601f19601f82011682018060405250810190610ef8919061123a565b1015610f39576040517f08c379a0000000000000000000000000000000000000000000000000000000008152600401610f309061178b565b60405180910390fd5b610f47600b54600c54610f4c565b905090565b60007f000000000000000000000000000000000000000000000000000000000000000073ffffffffffffffffffffffffffffffffffffffff16634000aea07f000000000000000000000000000000000000000000000000000000000000000084866000604051602001610fc09291906116db565b6040516020818303038152906040526040518463ffffffff1660e01b8152600401610fed93929190611667565b602060405180830381600087803b15801561100757600080fd5b505af115801561101b573d6000803e3d6000fd5b505050506040513d601f19601f8201168201806040525081019061103f91906111ac565b50600061106184600030600080898152602001908152602001600020546110ab565b905060016000808681526020019081526020016000205461108291906118c4565b600080868152602001908152602001600020819055506110a284826110e7565b91505092915050565b6000848484846040516020016110c49493929190611704565b6040516020818303038152906040528051906020012060001c9050949350505050565b600082826040516020016110fc92919061154e565b60405160208183030381529060405280519060200120905092915050565b60008135905061112981611c31565b92915050565b60008151905061113e81611c48565b92915050565b60008135905061115381611c5f565b92915050565b60008135905061116881611c76565b92915050565b60008151905061117d81611c76565b92915050565b60006020828403121561119557600080fd5b60006111a38482850161111a565b91505092915050565b6000602082840312156111be57600080fd5b60006111cc8482850161112f565b91505092915050565b600080604083850312156111e857600080fd5b60006111f685828601611144565b925050602061120785828601611159565b9150509250929050565b60006020828403121561122357600080fd5b600061123184828501611159565b91505092915050565b60006020828403121561124c57600080fd5b600061125a8482850161116e565b91505092915050565b61126c81611a41565b82525050565b61127b81611a53565b82525050565b61128a81611a5f565b82525050565b6112a161129c82611a5f565b611b4e565b82525050565b60006112b282611881565b6112bc8185611897565b93506112cc818560208601611aa0565b6112d581611c20565b840191505092915050565b60006112eb8261188c565b6112f581856118b3565b9350611305818560208601611aa0565b61130e81611c20565b840191505092915050565b60006113266014836118b3565b91507f4661696c656420746f2073656e642045746865720000000000000000000000006000830152602082019050919050565b6000611366602b836118b3565b91507f4e6f7420656e6f756768204c494e4b202d2066696c6c20636f6e74726163742060008301527f77697468206661756365740000000000000000000000000000000000000000006020830152604082019050919050565b60006113cc600b836118b3565b91507f4c6f77204465706f7369740000000000000000000000000000000000000000006000830152602082019050919050565b600061140c6015836118b3565b91507f43726561746f722063616e2774206465706f73697400000000000000000000006000830152602082019050919050565b600061144c601f836118b3565b91507f4f6e6c7920565246436f6f7264696e61746f722063616e2066756c66696c6c006000830152602082019050919050565b600061148c600c836118b3565b91507f48696768204465706f73697400000000000000000000000000000000000000006000830152602082019050919050565b60006114cc6000836118a8565b9150600082019050919050565b60006114e66017836118b3565b91507f54617267657420616d6f756e742066756c66696c6c65640000000000000000006000830152602082019050919050565b61152281611a89565b82525050565b61153961153482611a89565b611b58565b82525050565b61154881611a93565b82525050565b600061155a8285611290565b60208201915061156a8284611528565b6020820191508190509392505050565b6000611585826114bf565b9150819050919050565b60006020820190506115a46000830184611263565b92915050565b6000610120820190506115c0600083018c611263565b81810360208301526115d2818b6112e0565b90506115e1604083018a611519565b6115ee6060830189611519565b6115fb6080830188611519565b61160860a0830187611519565b61161560c083018661153f565b61162260e0830185611263565b611630610100830184611263565b9a9950505050505050505050565b60006040820190506116536000830185611263565b6116606020830184611519565b9392505050565b600060608201905061167c6000830186611263565b6116896020830185611519565b818103604083015261169b81846112a7565b9050949350505050565b60006020820190506116ba6000830184611272565b92915050565b60006020820190506116d56000830184611281565b92915050565b60006040820190506116f06000830185611281565b6116fd6020830184611519565b9392505050565b60006080820190506117196000830187611281565b6117266020830186611519565b6117336040830185611263565b6117406060830184611519565b95945050505050565b6000602082019050818103600083015261176381846112e0565b905092915050565b6000602082019050818103600083015261178481611319565b9050919050565b600060208201905081810360008301526117a481611359565b9050919050565b600060208201905081810360008301526117c4816113bf565b9050919050565b600060208201905081810360008301526117e4816113ff565b9050919050565b600060208201905081810360008301526118048161143f565b9050919050565b600060208201905081810360008301526118248161147f565b9050919050565b60006020820190508181036000830152611844816114d9565b9050919050565b60006020820190506118606000830184611519565b92915050565b600060208201905061187b600083018461153f565b92915050565b600081519050919050565b600081519050919050565b600082825260208201905092915050565b600081905092915050565b600082825260208201905092915050565b60006118cf82611a89565b91506118da83611a89565b9250827fffffffffffffffffffffffffffffffffffffffffffffffffffffffffffffffff0382111561190f5761190e611b93565b5b828201905092915050565b600061192582611a93565b915061193083611a93565b92508260ff0382111561194657611945611b93565b5b828201905092915050565b600061195c82611a89565b915061196783611a89565b92508261197757611976611bc2565b5b828204905092915050565b600061198d82611a93565b915061199883611a93565b9250826119a8576119a7611bc2565b5b828204905092915050565b60006119be82611a89565b91506119c983611a89565b9250817fffffffffffffffffffffffffffffffffffffffffffffffffffffffffffffffff0483118215151615611a0257611a01611b93565b5b828202905092915050565b6000611a1882611a93565b9150611a2383611a93565b925082821015611a3657611a35611b93565b5b828203905092915050565b6000611a4c82611a69565b9050919050565b60008115159050919050565b6000819050919050565b600073ffffffffffffffffffffffffffffffffffffffff82169050919050565b6000819050919050565b600060ff82169050919050565b60005b83811015611abe578082015181840152602081019050611aa3565b83811115611acd576000848401525b50505050565b60006002820490506001821680611aeb57607f821691505b60208210811415611aff57611afe611bf1565b5b50919050565b6000611b1082611a89565b91507fffffffffffffffffffffffffffffffffffffffffffffffffffffffffffffffff821415611b4357611b42611b93565b5b600182019050919050565b6000819050919050565b6000819050919050565b6000611b6d82611a89565b9150611b7883611a89565b925082611b8857611b87611bc2565b5b828206905092915050565b7f4e487b7100000000000000000000000000000000000000000000000000000000600052601160045260246000fd5b7f4e487b7100000000000000000000000000000000000000000000000000000000600052601260045260246000fd5b7f4e487b7100000000000000000000000000000000000000000000000000000000600052602260045260246000fd5b6000601f19601f8301169050919050565b611c3a81611a41565b8114611c4557600080fd5b50565b611c5181611a53565b8114611c5c57600080fd5b50565b611c6881611a5f565b8114611c7357600080fd5b50565b611c7f81611a89565b8114611c8a57600080fd5b5056fea26469706673582212208b9f0e5a906aec46d0a7b78c537125f8d634809c0df0eacd2df425abce41809564736f6c63430008000033a26469706673582212209a5bd29624f9ad2b3f93be5fe17ca7a9441106328fc8949d6a7f454e6090ba8164736f6c63430008000033",
  "linkReferences": {},
  "deployedLinkReferences": {}
}