{
  "_format": "hh-sol-artifact-1",
  "contractName": "SocialAwardVault",
  "sourceName": "contracts/SocialAwardVault.sol",
  "abi": [
    {
      "inputs": [
        {
          "internalType": "uint256",
          "name": "_targetAmount",
          "type": "uint256"
        },
        {
          "internalType": "string",
          "name": "_socialAwardVaultName",
          "type": "string"
        },
        {
          "internalType": "address",
          "name": "_awardOwner",
          "type": "address"
        },
        {
          "internalType": "uint256",
          "name": "_maxStakingAmount",
          "type": "uint256"
        },
        {
          "internalType": "uint256",
          "name": "_minStakingAmount",
          "type": "uint256"
        },
        {
          "internalType": "uint8",
          "name": "_socialAwardVaultProtocolFee",
          "type": "uint8"
        },
        {
          "internalType": "address",
          "name": "_VRFCoordinator",
          "type": "address"
        },
        {
          "internalType": "address",
          "name": "_linkTokenAddress",
          "type": "address"
        },
        {
          "internalType": "bytes32",
          "name": "_keyHash",
          "type": "bytes32"
        }
      ],
      "stateMutability": "nonpayable",
      "type": "constructor"
    },
    {
      "anonymous": false,
      "inputs": [
        {
          "indexed": false,
          "internalType": "address",
          "name": "winnerAddress",
          "type": "address"
        },
        {
          "indexed": false,
          "internalType": "uint256",
          "name": "socialAwardVaultTargetAmount",
          "type": "uint256"
        }
      ],
      "name": "UserClaimedVault",
      "type": "event"
    },
    {
      "anonymous": false,
      "inputs": [
        {
          "indexed": false,
          "internalType": "address",
          "name": "user",
          "type": "address"
        },
        {
          "indexed": false,
          "internalType": "uint256",
          "name": "amount",
          "type": "uint256"
        }
      ],
      "name": "UserStaked",
      "type": "event"
    },
    {
      "anonymous": false,
      "inputs": [
        {
          "indexed": false,
          "internalType": "address",
          "name": "SAVAddress",
          "type": "address"
        }
      ],
      "name": "VRFCalled",
      "type": "event"
    },
    {
      "inputs": [],
      "name": "claimSocialAwardVault",
      "outputs": [],
      "stateMutability": "payable",
      "type": "function"
    },
    {
      "inputs": [],
      "name": "getMyStakingAmount",
      "outputs": [
        {
          "internalType": "uint256",
          "name": "",
          "type": "uint256"
        }
      ],
      "stateMutability": "view",
      "type": "function"
    },
    {
      "inputs": [],
      "name": "getSocialAwardVaultData",
      "outputs": [
        {
          "internalType": "address",
          "name": "",
          "type": "address"
        },
        {
          "internalType": "string",
          "name": "",
          "type": "string"
        },
        {
          "internalType": "uint256",
          "name": "",
          "type": "uint256"
        },
        {
          "internalType": "uint256",
          "name": "",
          "type": "uint256"
        },
        {
          "internalType": "uint256",
          "name": "",
          "type": "uint256"
        },
        {
          "internalType": "uint256",
          "name": "",
          "type": "uint256"
        },
        {
          "internalType": "uint8",
          "name": "",
          "type": "uint8"
        },
        {
          "internalType": "address",
          "name": "",
          "type": "address"
        },
        {
          "internalType": "address",
          "name": "",
          "type": "address"
        }
      ],
      "stateMutability": "view",
      "type": "function"
    },
    {
      "inputs": [
        {
          "internalType": "address",
          "name": "_userAddress",
          "type": "address"
        }
      ],
      "name": "getUserIsStaking",
      "outputs": [
        {
          "internalType": "bool",
          "name": "",
          "type": "bool"
        }
      ],
      "stateMutability": "view",
      "type": "function"
    },
    {
      "inputs": [],
      "name": "isUserWinner",
      "outputs": [
        {
          "internalType": "bool",
          "name": "",
          "type": "bool"
        }
      ],
      "stateMutability": "view",
      "type": "function"
    },
    {
      "inputs": [],
      "name": "maxStakingAmount",
      "outputs": [
        {
          "internalType": "uint256",
          "name": "",
          "type": "uint256"
        }
      ],
      "stateMutability": "view",
      "type": "function"
    },
    {
      "inputs": [],
      "name": "minStakingAmount",
      "outputs": [
        {
          "internalType": "uint256",
          "name": "",
          "type": "uint256"
        }
      ],
      "stateMutability": "view",
      "type": "function"
    },
    {
      "inputs": [],
      "name": "randomResult",
      "outputs": [
        {
          "internalType": "uint256",
          "name": "",
          "type": "uint256"
        }
      ],
      "stateMutability": "view",
      "type": "function"
    },
    {
      "inputs": [],
      "name": "randomResultMod",
      "outputs": [
        {
          "internalType": "uint256",
          "name": "",
          "type": "uint256"
        }
      ],
      "stateMutability": "view",
      "type": "function"
    },
    {
      "inputs": [
        {
          "internalType": "bytes32",
          "name": "requestId",
          "type": "bytes32"
        },
        {
          "internalType": "uint256",
          "name": "randomness",
          "type": "uint256"
        }
      ],
      "name": "rawFulfillRandomness",
      "outputs": [],
      "stateMutability": "nonpayable",
      "type": "function"
    },
    {
      "inputs": [],
      "name": "socialAwardVaultFactoryAddress",
      "outputs": [
        {
          "internalType": "address",
          "name": "",
          "type": "address"
        }
      ],
      "stateMutability": "view",
      "type": "function"
    },
    {
      "inputs": [],
      "name": "socialAwardVaultName",
      "outputs": [
        {
          "internalType": "string",
          "name": "",
          "type": "string"
        }
      ],
      "stateMutability": "view",
      "type": "function"
    },
    {
      "inputs": [],
      "name": "socialAwardVaultOwner",
      "outputs": [
        {
          "internalType": "address",
          "name": "",
          "type": "address"
        }
      ],
      "stateMutability": "view",
      "type": "function"
    },
    {
      "inputs": [],
      "name": "socialAwardVaultProtocolFee",
      "outputs": [
        {
          "internalType": "uint8",
          "name": "",
          "type": "uint8"
        }
      ],
      "stateMutability": "view",
      "type": "function"
    },
    {
      "inputs": [],
      "name": "socialAwardVaultStakedAmount",
      "outputs": [
        {
          "internalType": "uint256",
          "name": "",
          "type": "uint256"
        }
      ],
      "stateMutability": "view",
      "type": "function"
    },
    {
      "inputs": [],
      "name": "socialAwardVaultTargetAmount",
      "outputs": [
        {
          "internalType": "uint256",
          "name": "",
          "type": "uint256"
        }
      ],
      "stateMutability": "view",
      "type": "function"
    },
    {
      "inputs": [],
      "name": "stakeToSocialAwardVault",
      "outputs": [
        {
          "internalType": "bytes32",
          "name": "",
          "type": "bytes32"
        }
      ],
      "stateMutability": "payable",
      "type": "function"
    },
    {
      "inputs": [
        {
          "internalType": "address",
          "name": "",
          "type": "address"
        }
      ],
      "name": "userBalancesMap",
      "outputs": [
        {
          "internalType": "uint256",
          "name": "",
          "type": "uint256"
        }
      ],
      "stateMutability": "view",
      "type": "function"
    },
    {
      "inputs": [
        {
          "internalType": "uint256",
          "name": "",
          "type": "uint256"
        }
      ],
      "name": "userStakingList",
      "outputs": [
        {
          "internalType": "address",
          "name": "",
          "type": "address"
        }
      ],
      "stateMutability": "view",
      "type": "function"
    }
  ],
  "bytecode": "0x60c06040526000600d553480156200001657600080fd5b50604051620025493803806200254983398181016040528101906200003c91906200031c565b82828173ffffffffffffffffffffffffffffffffffffffff1660a08173ffffffffffffffffffffffffffffffffffffffff1660601b815250508073ffffffffffffffffffffffffffffffffffffffff1660808173ffffffffffffffffffffffffffffffffffffffff1660601b81525050505086600260006101000a81548173ffffffffffffffffffffffffffffffffffffffff021916908373ffffffffffffffffffffffffffffffffffffffff1602179055508760039080519060200190620001079291906200019e565b5088600481905550856006819055508460078190555083600860006101000a81548160ff021916908360ff16021790555033600160006101000a81548173ffffffffffffffffffffffffffffffffffffffff021916908373ffffffffffffffffffffffffffffffffffffffff16021790555080600b81905550670de0b6b3a7640000600c81905550505050505050505050620005fc565b828054620001ac9062000500565b90600052602060002090601f016020900481019282620001d057600085556200021c565b82601f10620001eb57805160ff19168380011785556200021c565b828001600101855582156200021c579182015b828111156200021b578251825591602001919060010190620001fe565b5b5090506200022b91906200022f565b5090565b5b808211156200024a57600081600090555060010162000230565b5090565b6000620002656200025f8462000442565b6200040e565b9050828152602081018484840111156200027e57600080fd5b6200028b848285620004ca565b509392505050565b600081519050620002a48162000594565b92915050565b600081519050620002bb81620005ae565b92915050565b600082601f830112620002d357600080fd5b8151620002e58482602086016200024e565b91505092915050565b600081519050620002ff81620005c8565b92915050565b6000815190506200031681620005e2565b92915050565b60008060008060008060008060006101208a8c0312156200033c57600080fd5b60006200034c8c828d01620002ee565b99505060208a015167ffffffffffffffff8111156200036a57600080fd5b620003788c828d01620002c1565b98505060406200038b8c828d0162000293565b97505060606200039e8c828d01620002ee565b9650506080620003b18c828d01620002ee565b95505060a0620003c48c828d0162000305565b94505060c0620003d78c828d0162000293565b93505060e0620003ea8c828d0162000293565b925050610100620003fe8c828d01620002aa565b9150509295985092959850929598565b6000604051905081810181811067ffffffffffffffff8211171562000438576200043762000565565b5b8060405250919050565b600067ffffffffffffffff82111562000460576200045f62000565565b5b601f19601f8301169050602081019050919050565b6000620004828262000493565b9050919050565b6000819050919050565b600073ffffffffffffffffffffffffffffffffffffffff82169050919050565b6000819050919050565b600060ff82169050919050565b60005b83811015620004ea578082015181840152602081019050620004cd565b83811115620004fa576000848401525b50505050565b600060028204905060018216806200051957607f821691505b6020821081141562000530576200052f62000536565b5b50919050565b7f4e487b7100000000000000000000000000000000000000000000000000000000600052602260045260246000fd5b7f4e487b7100000000000000000000000000000000000000000000000000000000600052604160045260246000fd5b6200059f8162000475565b8114620005ab57600080fd5b50565b620005b98162000489565b8114620005c557600080fd5b50565b620005d381620004b3565b8114620005df57600080fd5b50565b620005ed81620004bd565b8114620005f957600080fd5b50565b60805160601c60a05160601c611f1362000636600039600081816108b0015261111c015260008181610fe101526110e00152611f136000f3fe6080604052600436106101145760003560e01c80634d5d0806116100a057806394985ddd1161006457806394985ddd1461038d578063951f0a34146103b6578063ced6efce146103d4578063cf828fcf14610411578063f87251721461044e57610114565b80634d5d0806146102a457806351598915146102cf5780635eedad4c146102fa5780636a2100a4146103255780638f8914161461035057610114565b806333100698116100e757806333100698146101cd5780633a2c1e55146101f857806342619f6614610223578063490185421461024e5780634bb559bd1461027957610114565b806315138c2b1461011957806325c065b1146101445780632b7e3c711461016f578063326d21a01461019a575b600080fd5b34801561012557600080fd5b5061012e610458565b60405161013b9190611959565b60405180910390f35b34801561015057600080fd5b506101596104e6565b6040516101669190611a9b565b60405180910390f35b34801561017b57600080fd5b506101846104ec565b6040516101919190611a9b565b60405180910390f35b3480156101a657600080fd5b506101af6104f2565b6040516101c4999897969594939291906117ba565b60405180910390f35b3480156101d957600080fd5b506101e261060f565b6040516101ef9190611ab6565b60405180910390f35b34801561020457600080fd5b5061020d610622565b60405161021a91906118b5565b60405180910390f35b34801561022f57600080fd5b506102386107b8565b6040516102459190611a9b565b60405180910390f35b34801561025a57600080fd5b506102636107be565b6040516102709190611a9b565b60405180910390f35b34801561028557600080fd5b5061028e6107c4565b60405161029b919061179f565b60405180910390f35b3480156102b057600080fd5b506102b96107ea565b6040516102c69190611a9b565b60405180910390f35b3480156102db57600080fd5b506102e46107f0565b6040516102f19190611a9b565b60405180910390f35b34801561030657600080fd5b5061030f610837565b60405161031c919061179f565b60405180910390f35b34801561033157600080fd5b5061033a61085d565b6040516103479190611a9b565b60405180910390f35b34801561035c57600080fd5b5061037760048036038101906103729190611313565b610863565b60405161038491906118b5565b60405180910390f35b34801561039957600080fd5b506103b460048036038101906103af9190611365565b6108ae565b005b6103be61094a565b6040516103cb91906118d0565b60405180910390f35b3480156103e057600080fd5b506103fb60048036038101906103f691906113a1565b610de8565b604051610408919061179f565b60405180910390f35b34801561041d57600080fd5b5061043860048036038101906104339190611313565b610e27565b6040516104459190611a9b565b60405180910390f35b610456610e3f565b005b6003805461046590611d23565b80601f016020809104026020016040519081016040528092919081815260200182805461049190611d23565b80156104de5780601f106104b3576101008083540402835291602001916104de565b820191906000526020600020905b8154815290600101906020018083116104c157829003601f168201915b505050505081565b60075481565b60055481565b600060606000806000806000806000600260009054906101000a900473ffffffffffffffffffffffffffffffffffffffff166003600454600554600654600754600860009054906101000a900460ff1630600160009054906101000a900473ffffffffffffffffffffffffffffffffffffffff1687805461057290611d23565b80601f016020809104026020016040519081016040528092919081815260200182805461059e90611d23565b80156105eb5780601f106105c0576101008083540402835291602001916105eb565b820191906000526020600020905b8154815290600101906020018083116105ce57829003601f168201915b50505050509750985098509850985098509850985098509850909192939495969798565b600860009054906101000a900460ff1681565b600080600d5411156107b057600080600090505b6009805490508110156107ad57600a600060098381548110610681577f4e487b7100000000000000000000000000000000000000000000000000000000600052603260045260246000fd5b9060005260206000200160009054906101000a900473ffffffffffffffffffffffffffffffffffffffff1673ffffffffffffffffffffffffffffffffffffffff1673ffffffffffffffffffffffffffffffffffffffff16815260200190815260200160002054826106f29190611b14565b9150600e5482111561079a5760098181548110610738577f4e487b7100000000000000000000000000000000000000000000000000000000600052603260045260246000fd5b9060005260206000200160009054906101000a900473ffffffffffffffffffffffffffffffffffffffff1673ffffffffffffffffffffffffffffffffffffffff163373ffffffffffffffffffffffffffffffffffffffff1614925050506107b5565b80806107a590611d55565b915050610636565b50505b600090505b90565b600d5481565b600e5481565b600160009054906101000a900473ffffffffffffffffffffffffffffffffffffffff1681565b60065481565b6000600a60003373ffffffffffffffffffffffffffffffffffffffff1673ffffffffffffffffffffffffffffffffffffffff16815260200190815260200160002054905090565b600260009054906101000a900473ffffffffffffffffffffffffffffffffffffffff1681565b60045481565b600080600a60008473ffffffffffffffffffffffffffffffffffffffff1673ffffffffffffffffffffffffffffffffffffffff16815260200190815260200160002054119050919050565b7f000000000000000000000000000000000000000000000000000000000000000073ffffffffffffffffffffffffffffffffffffffff163373ffffffffffffffffffffffffffffffffffffffff161461093c576040517f08c379a0000000000000000000000000000000000000000000000000000000008152600401610933906119fb565b60405180910390fd5b6109468282610fb9565b5050565b6000600260009054906101000a900473ffffffffffffffffffffffffffffffffffffffff1673ffffffffffffffffffffffffffffffffffffffff163373ffffffffffffffffffffffffffffffffffffffff1614156109dd576040517f08c379a00000000000000000000000000000000000000000000000000000000081526004016109d4906119db565b60405180910390fd5b60055460045411610a23576040517f08c379a0000000000000000000000000000000000000000000000000000000008152600401610a1a90611a7b565b60405180910390fd5b346064600860009054906101000a900460ff16610a409190611bd2565b6001610a4c9190611b6a565b60ff16600754610a5c9190611c03565b1115610a9d576040517f08c379a0000000000000000000000000000000000000000000000000000000008152600401610a94906119bb565b60405180910390fd5b6064600860009054906101000a900460ff16610ab99190611bd2565b6001610ac59190611b6a565b60ff16600654610ad59190611c03565b341115610b17576040517f08c379a0000000000000000000000000000000000000000000000000000000008152600401610b0e90611a1b565b60405180910390fd5b6000610b2233610863565b610b8a576009339080600181540180825580915050600190039060005260206000200160009091909190916101000a81548173ffffffffffffffffffffffffffffffffffffffff021916908373ffffffffffffffffffffffffffffffffffffffff1602179055505b6064600860009054906101000a900460ff166064610ba89190611c5d565b60ff1634610bb69190611c03565b610bc09190611ba1565b60056000828254610bd19190611b14565b925050819055506064600860009054906101000a900460ff166064610bf69190611c5d565b60ff1634610c049190611c03565b610c0e9190611ba1565b600a60003373ffffffffffffffffffffffffffffffffffffffff1673ffffffffffffffffffffffffffffffffffffffff1681526020019081526020016000206000828254610c5c9190611b14565b925050819055506000600160009054906101000a900473ffffffffffffffffffffffffffffffffffffffff1673ffffffffffffffffffffffffffffffffffffffff166064600860009054906101000a900460ff1660ff1634610cbe9190611c03565b610cc89190611ba1565b604051610cd49061178a565b60006040518083038185875af1925050503d8060008114610d11576040519150601f19603f3d011682016040523d82523d6000602084013e610d16565b606091505b5050905080610d5a576040517f08c379a0000000000000000000000000000000000000000000000000000000008152600401610d519061197b565b60405180910390fd5b7f8c265adcfa641899d6632b86254dda7a76f27701f1d21a732621d51f2328c4603334604051610d8b92919061184e565b60405180910390a160045460055410610de057610da6610fda565b91507fbf6a13344ec08d2bfaf69eb5b731afcfd0b9c50feb603663fefd3c3311a0068230604051610dd7919061179f565b60405180910390a15b819250505090565b60098181548110610df857600080fd5b906000526020600020016000915054906101000a900473ffffffffffffffffffffffffffffffffffffffff1681565b600a6020528060005260406000206000915090505481565b6004546005541015610e86576040517f08c379a0000000000000000000000000000000000000000000000000000000008152600401610e7d90611a5b565b60405180910390fd5b610e8e610622565b610ecd576040517f08c379a0000000000000000000000000000000000000000000000000000000008152600401610ec490611a3b565b60405180910390fd5b60003373ffffffffffffffffffffffffffffffffffffffff16600454604051610ef59061178a565b60006040518083038185875af1925050503d8060008114610f32576040519150601f19603f3d011682016040523d82523d6000602084013e610f37565b606091505b5050905080610f7b576040517f08c379a0000000000000000000000000000000000000000000000000000000008152600401610f729061197b565b60405180910390fd5b7f841befbc9bf04d4d274a0decc73f29d4bc781bef2b2530b20aebbfdcc95b4b4e33600454604051610fae92919061184e565b60405180910390a150565b80600d81905550600454600d54610fd09190611db2565b600e819055505050565b6000600c547f000000000000000000000000000000000000000000000000000000000000000073ffffffffffffffffffffffffffffffffffffffff166370a08231306040518263ffffffff1660e01b8152600401611038919061179f565b60206040518083038186803b15801561105057600080fd5b505afa158015611064573d6000803e3d6000fd5b505050506040513d601f19601f8201168201806040525081019061108891906113ca565b10156110c9576040517f08c379a00000000000000000000000000000000000000000000000000000000081526004016110c09061199b565b60405180910390fd5b6110d7600b54600c546110dc565b905090565b60007f000000000000000000000000000000000000000000000000000000000000000073ffffffffffffffffffffffffffffffffffffffff16634000aea07f0000000000000000000000000000000000000000000000000000000000000000848660006040516020016111509291906118eb565b6040516020818303038152906040526040518463ffffffff1660e01b815260040161117d93929190611877565b602060405180830381600087803b15801561119757600080fd5b505af11580156111ab573d6000803e3d6000fd5b505050506040513d601f19601f820116820180604052508101906111cf919061133c565b5060006111f1846000306000808981526020019081526020016000205461123b565b90506001600080868152602001908152602001600020546112129190611b14565b600080868152602001908152602001600020819055506112328482611277565b91505092915050565b6000848484846040516020016112549493929190611914565b6040516020818303038152906040528051906020012060001c9050949350505050565b6000828260405160200161128c92919061175e565b60405160208183030381529060405280519060200120905092915050565b6000813590506112b981611e81565b92915050565b6000815190506112ce81611e98565b92915050565b6000813590506112e381611eaf565b92915050565b6000813590506112f881611ec6565b92915050565b60008151905061130d81611ec6565b92915050565b60006020828403121561132557600080fd5b6000611333848285016112aa565b91505092915050565b60006020828403121561134e57600080fd5b600061135c848285016112bf565b91505092915050565b6000806040838503121561137857600080fd5b6000611386858286016112d4565b9250506020611397858286016112e9565b9150509250929050565b6000602082840312156113b357600080fd5b60006113c1848285016112e9565b91505092915050565b6000602082840312156113dc57600080fd5b60006113ea848285016112fe565b91505092915050565b6113fc81611c91565b82525050565b61140b81611ca3565b82525050565b61141a81611caf565b82525050565b61143161142c82611caf565b611d9e565b82525050565b600061144282611ad1565b61144c8185611ae7565b935061145c818560208601611cf0565b61146581611e70565b840191505092915050565b600061147b82611adc565b6114858185611b03565b9350611495818560208601611cf0565b61149e81611e70565b840191505092915050565b60006114b6601483611b03565b91507f4661696c656420746f2073656e642045746865720000000000000000000000006000830152602082019050919050565b60006114f6602b83611b03565b91507f4e6f7420656e6f756768204c494e4b202d2066696c6c20636f6e74726163742060008301527f77697468206661756365740000000000000000000000000000000000000000006020830152604082019050919050565b600061155c600b83611b03565b91507f4c6f77204465706f7369740000000000000000000000000000000000000000006000830152602082019050919050565b600061159c601583611b03565b91507f43726561746f722063616e2774206465706f73697400000000000000000000006000830152602082019050919050565b60006115dc601f83611b03565b91507f4f6e6c7920565246436f6f7264696e61746f722063616e2066756c66696c6c006000830152602082019050919050565b600061161c600c83611b03565b91507f48696768204465706f73697400000000000000000000000000000000000000006000830152602082019050919050565b600061165c601683611b03565b91507f55736572206973206e6f74207468652077696e6e6572000000000000000000006000830152602082019050919050565b600061169c600083611af8565b9150600082019050919050565b60006116b6601c83611b03565b91507f5661756c74206e6f7420726561636865642074617267657420796574000000006000830152602082019050919050565b60006116f6601783611b03565b91507f54617267657420616d6f756e742066756c66696c6c65640000000000000000006000830152602082019050919050565b61173281611cd9565b82525050565b61174961174482611cd9565b611da8565b82525050565b61175881611ce3565b82525050565b600061176a8285611420565b60208201915061177a8284611738565b6020820191508190509392505050565b60006117958261168f565b9150819050919050565b60006020820190506117b460008301846113f3565b92915050565b6000610120820190506117d0600083018c6113f3565b81810360208301526117e2818b611470565b90506117f1604083018a611729565b6117fe6060830189611729565b61180b6080830188611729565b61181860a0830187611729565b61182560c083018661174f565b61183260e08301856113f3565b6118406101008301846113f3565b9a9950505050505050505050565b600060408201905061186360008301856113f3565b6118706020830184611729565b9392505050565b600060608201905061188c60008301866113f3565b6118996020830185611729565b81810360408301526118ab8184611437565b9050949350505050565b60006020820190506118ca6000830184611402565b92915050565b60006020820190506118e56000830184611411565b92915050565b60006040820190506119006000830185611411565b61190d6020830184611729565b9392505050565b60006080820190506119296000830187611411565b6119366020830186611729565b61194360408301856113f3565b6119506060830184611729565b95945050505050565b600060208201905081810360008301526119738184611470565b905092915050565b60006020820190508181036000830152611994816114a9565b9050919050565b600060208201905081810360008301526119b4816114e9565b9050919050565b600060208201905081810360008301526119d48161154f565b9050919050565b600060208201905081810360008301526119f48161158f565b9050919050565b60006020820190508181036000830152611a14816115cf565b9050919050565b60006020820190508181036000830152611a348161160f565b9050919050565b60006020820190508181036000830152611a548161164f565b9050919050565b60006020820190508181036000830152611a74816116a9565b9050919050565b60006020820190508181036000830152611a94816116e9565b9050919050565b6000602082019050611ab06000830184611729565b92915050565b6000602082019050611acb600083018461174f565b92915050565b600081519050919050565b600081519050919050565b600082825260208201905092915050565b600081905092915050565b600082825260208201905092915050565b6000611b1f82611cd9565b9150611b2a83611cd9565b9250827fffffffffffffffffffffffffffffffffffffffffffffffffffffffffffffffff03821115611b5f57611b5e611de3565b5b828201905092915050565b6000611b7582611ce3565b9150611b8083611ce3565b92508260ff03821115611b9657611b95611de3565b5b828201905092915050565b6000611bac82611cd9565b9150611bb783611cd9565b925082611bc757611bc6611e12565b5b828204905092915050565b6000611bdd82611ce3565b9150611be883611ce3565b925082611bf857611bf7611e12565b5b828204905092915050565b6000611c0e82611cd9565b9150611c1983611cd9565b9250817fffffffffffffffffffffffffffffffffffffffffffffffffffffffffffffffff0483118215151615611c5257611c51611de3565b5b828202905092915050565b6000611c6882611ce3565b9150611c7383611ce3565b925082821015611c8657611c85611de3565b5b828203905092915050565b6000611c9c82611cb9565b9050919050565b60008115159050919050565b6000819050919050565b600073ffffffffffffffffffffffffffffffffffffffff82169050919050565b6000819050919050565b600060ff82169050919050565b60005b83811015611d0e578082015181840152602081019050611cf3565b83811115611d1d576000848401525b50505050565b60006002820490506001821680611d3b57607f821691505b60208210811415611d4f57611d4e611e41565b5b50919050565b6000611d6082611cd9565b91507fffffffffffffffffffffffffffffffffffffffffffffffffffffffffffffffff821415611d9357611d92611de3565b5b600182019050919050565b6000819050919050565b6000819050919050565b6000611dbd82611cd9565b9150611dc883611cd9565b925082611dd857611dd7611e12565b5b828206905092915050565b7f4e487b7100000000000000000000000000000000000000000000000000000000600052601160045260246000fd5b7f4e487b7100000000000000000000000000000000000000000000000000000000600052601260045260246000fd5b7f4e487b7100000000000000000000000000000000000000000000000000000000600052602260045260246000fd5b6000601f19601f8301169050919050565b611e8a81611c91565b8114611e9557600080fd5b50565b611ea181611ca3565b8114611eac57600080fd5b50565b611eb881611caf565b8114611ec357600080fd5b50565b611ecf81611cd9565b8114611eda57600080fd5b5056fea26469706673582212203398686ea5961a2290bccf256fe4ddab4a21b42bd2b348dbd68fd0b0ae164d2c64736f6c63430008000033",
  "linkReferences": {},
  "deployedLinkReferences": {}
}